:020000040800F2
:1000000000280020E10D0008090E0008090E000874
:10001000090E0008090E0008090E00080000000083
:10002000000000000000000000000000090E0008B1
:10003000090E000800000000090E0008090E000863
:10004000090E0008090E0008090E0008090E000834
:10005000090E0008090E0008090E0008090E000824
:10006000090E0008090E0008090E0008090E000814
:10007000090E0008090E0008090E0008090E000804
:10008000090E0008090E0008E5050008090E000821
:10009000090E0008090E0008090E0008090E0008E4
:1000A000090E000875040008090E0008090E000872
:1000B000090E0008090E000800000000090E0008E3
:1000C000090E00080000000000000000090E0008F2
:1000D00000000000090E0008090E000800000000E2
:1000E000090E0008090E0008090E000800000000B3
:1000F0000000000000000000000000000000000000
:0C01000000000000000000005FF808F1A3
:10010C005370656564203D202564207065726365BD
:10011C006E74200D0A00000054656D706572617478
:10012C00757265203D202564000000002E25644377
:03013C000D0A00A9
:1001400080B400AF044BDB68034A43F00803D3607C
:1001500000BFBD4680BC70470010014080B400AFB6
:10016000044BDB68034A23F00803D36000BFBD469D
:1001700080BC70470010014080B582B000AFAE4B2C
:100180001B680133AC4A1360AB4B1B68322B40F049
:10019000F980A94B00221A60A84B1B780133DAB210
:1001A000A64B1A70A54B1B7803F00103DAB2A34BE0
:1001B0001A70A34B1B780133DAB2A14B1A70A04B13
:1001C0001A78A04BA3FB0213D9080B469B000B44E3
:1001D0005B00D31ADAB29A4B1A709B4B1B7801332F
:1001E000DAB2994B1A70984B1A78964BA3FB02130C
:1001F00099080B469B000B44D31ADAB2924B1A7043
:10020000914B1B78002B47D1904B1B68904A82FB87
:1002100003125211DB17D21A8E4B83FB0213991073
:10022000D317C91A0B469B000B445B00D11ACAB204
:10023000894B1A70854B1B68864A82FB0312921009
:10024000DB17D21A834B83FB02139910D317C91AF9
:100250000B469B000B445B00D11ACAB27E4B5A700E
:100260007A4B1A687B4B83FB02139910D317C91A78
:100270000B469B000B445B00D11ACAB2764B9A70B6
:10028000754B0A22DA70744B0A221A71724B0A22D9
:100290005A71724B00221A706B4B1B78012B71D173
:1002A0006F4B1B684FF4FA7202FB03F3002B01DA69
:1002B00003F6FF731B137B60694B1B6840F63542E6
:1002C00002FB03F3002B00DAFF331B12604A82FBB0
:1002D00003125111DA178A1A642101FB02F29B1AE8
:1002E0003B607B685B4A82FB03129210DB17D21AD9
:1002F000584B83FB02139910D317C91A0B469B0066
:100300000B445B00D11ACAB2534B1A707A68514B36
:1003100083FB02139910D317C91A0B469B000B4499
:100320005B00D11ACAB24C4B5A703B68494A82FBF7
:1003300003129210DB17D21A464B83FB021399105B
:10034000D317C91A0B469B000B445B00D11ACAB2E3
:10035000414B9A703A683F4B83FB02139910D317B5
:10036000C91A0B469B000B445B00D11ACAB23A4B28
:10037000DA70394B0A221A71374B0A225A71374BFD
:1003800001221A702C4B1B682E4AA2FB03239B08E8
:100390002E4A1268934202D2FFF7D2FE01E0FFF725
:1003A000DDFE304BDB682F4A23F47F5323F03F03FD
:1003B000D3602C4BDB682B4A43F0FF03D360294BFF
:1003C000DB68294A12781146234A525C1146274AB3
:1003D000525CD2431146234A0B40D3601F4B1B781B
:1003E000002B09D0204B1B78012B05D11D4BDB685E
:1003F0001C4A03F07F03D3601A4BDB681A4A127859
:100400000832012101FA02F21146164A0B43D36069
:10041000154B1B785A1C164B83FB0231D317C91A94
:100420000B465B000B445B00D11ACAB20E4B1A702C
:1004300000BF0837BD4680BD10000020140000201A
:1004400015000020CDCCCCCC1600002024000020CC
:100450001F85EB51676666661C00002017000020B0
:1004600048000020000C0140220000200400002071
:10047000ABAAAA2A80B500AF064B1B6803F00103A4
:10048000002B04D0034B00221A60FFF775FE00BF5B
:1004900080BD00BF102C014080B485B000AF294B57
:1004A0001B68284A43F008031360274B1B68FB6056
:1004B0000023BB6015E0BB689B000F2202FA03F328
:1004C000DB431A46FB681340FB60BB689B000222BB
:1004D00002FA03F31A46FB681343FB60BB6801335F
:1004E000BB60BB68072BE6DD174AFB681360164B41
:1004F0005B687B6000233B6015E03B689B000F223C
:1005000002FA03F3DB431A467B6813407B603B68C7
:100510009B00022202FA03F31A467B6813437B60B6
:100520003B6801333B603B68052BE6DD064A7B6890
:100530005360054B0022DA6000BF1437BD4680BC13
:10054000704700BF18100240000C014080B400AF9B
:10055000224B9B69214A43F010039361204B1B6897
:100560001F4A23F4704313601D4B1B681C4A43F45D
:10057000005313601A4B1B68194A23F4404313605D
:10058000174BDB68164A23F00803D360144B1B6833
:10059000134A23F00F031360114B1B68104A43F0FA
:1005A000080313600E4B1B680D4A23F0F003136021
:1005B0000B4B1B680A4A43F080031360084B1B680F
:1005C000074A23F470631360054B1B68044A43F425
:1005D0000063136000BFBD4680BC7047001002403E
:1005E0000010014080B483B000AF094B1B68FB8052
:1005F000FB8803F00203002B04D0054BDB6C9BB29D
:10060000044A136000BF0C37BD4680BC704700BF72
:10061000002401404800002080B584B000AF00F005
:100620001DFA00F029FAFFF737FF00F031FAFFF763
:100630008DFF00F001FB00F079FB6A4B1B78002B6B
:100640000BD1694B9B68684A43F480039360642034
:1006500000F0E8F8654B1B68FB60654B9B6803F096
:100660000103012B19D1FB68B3F5967F03DD614BC4
:1006700064221A6035E0FB68962B0ADDFB68963B26
:100680005B005D4A82FB0312DB17D31A594A1360E1
:1006900027E0584B00221A6023E0554B9B6803F07B
:1006A0000203022B0BD1554B1B78002B07D1534B68
:1006B00001221A704F4B1B6805334E4A13604C4B96
:1006C0009B6803F00403042B0BD14D4B1B78002BCC
:1006D00007D14B4B01221A70464B1B68053B454A1C
:1006E0001360434B9B6803F00203022B02D0434B81
:1006F00000221A703E4B9B6803F00403042B02D0C7
:100700003F4B00221A703B4B1B68642B02DD394BB8
:1007100064221A60374B1B68002B02DA354B00222B
:100720001A60384B1B78002B52D1374B1B78002BAB
:100730004ED12E4B1B68FB60FB684FF4FA7202FB34
:1007400003F3002B01DA03F6FF731B137B60FB68D6
:1007500040F6354202FB03F3002B00DAFF331B1295
:100760001A462A4B83FB02135911D317CB1A642163
:1007700001FB03F3D31A3B601E4A2549254800F0CC
:10078000BFF80346BB60BB681A462249224800F006
:10079000F4FA3B1D1A4621491E4800F0B1F8034601
:1007A000BB60BB681A461B491B4800F0E6FA3B4693
:1007B0001A461B49174800F0A3F80346BB60BB6804
:1007C0001A461449144800F0D8FA0F4B01221A7047
:1007D0000C4B1B78002B3FF430AF0B4B00221A70F0
:1007E0002BE700BF14000020002401404800002037
:1007F00000100140240000205655555518000020D7
:100800001900002015000020000000201F85EB517A
:100810000C010008280000200038014024010008D5
:100820003801000880B485B000AF78607B6864222E
:1008300002FB03F2094BA3FB0213D21A5208134422
:100840009B08FB60FB68013BFB60FB68002BF9D158
:1008500000BF1437BD4680BC704700BF25499224B5
:1008600080B489B000AFF860B9607A6042F210736A
:10087000FB610123BB6138E07A68FB6992FBF3F30B
:100880007B61BB69012B0ED17B69002B0BD1FB690E
:10089000012B08D0FB69194A82FB03129210DB1767
:1008A000D31AFB6121E00023BB617B69FA6902FB7B
:1008B00003F37A68D31A7B607B69DAB2FB681B6842
:1008C0003032D2B21A70FB681B685A1CFB681A607F
:1008D000BB681B685A1CBB681A60FB69074A82FB2D
:1008E00003129210DB17D31AFB61FB69002BC3DCE8
:1008F00000BF2437BD4680BC704700BF6766666690
:1009000080B48DB000AFF860B9607A600023FB62FC
:100910007FE0BB681B78252B0BD0BA68531CBB60EB
:10092000FB68591CF96012781A70FB6A0133FB628C
:100930006FE0BB680133BB60BB681B78642B3FD1A1
:100940007B681B68BB6242F210737B6201233B62CF
:1009500032E0BA6A7B6A92FBF3F37B613B6A012B5C
:100960000ED17B69002B0BD17B6A012B08D07B6AEF
:100970002E4A82FB03129210DB17D31A7B621BE014
:1009800000233B627B697A6A02FB03F3BA6AD31ADB
:10099000BB627B69DAB2FB68591CF9603032D2B2B3
:1009A0001A70FB6A0133FB627B6A204A82FB0312E6
:1009B0009210DB17D31A7B627B6A002BC9DC25E01F
:1009C000BB681B78622B21D17B681B683B614FF4AD
:1009D0000043FB610023BB6115E03A69FB691340EA
:1009E000002B01DD312100E03021FB685A1CFA6048
:1009F0000A461A70FB695B10FB61FB6A0133FB62FC
:100A0000BB690133BB61BB690F2BE6DDBB680133FA
:100A1000BB60BB681B78002B7FF47BAFFB6ADBB24B
:100A200018463437BD4680BC704700BF67666666AF
:100A300080B485B000AF78600023FB6000BFFB6826
:100A40005A1CFA601A467B6813441B78002BF6D1B7
:100A5000FB6818461437BD4680BC704780B400AFB1
:100A6000044B1B68034A43F40163136000BFBD4697
:100A700080BC70471810024080B400AF034B4FF0A9
:100A800000721A6000BFBD4680BC704700E100E004
:100A900080B400AF0C4B1B680B4A43F0010313609A
:100AA0000A4B00221A600A4B41F63F721A60094B4A
:100AB00002221A60084B1B68074A43F001031360C7
:100AC00000BFBD4680BC70470C2C0140102C01407B
:100AD000282C01402C2C0140002C014080B483B014
:100AE00000AF0346FB7197F90730002B0BDBFB7956
:100AF00003F01F02064997F907305B09012000FA4D
:100B000002F241F8232000BF0C37BD4680BC70477D
:100B100000E100E080B483B000AF03463960FB71B0
:100B200097F90730002B0ADB3B68DAB20C4997F9DA
:100B300007301201D2B20B4483F800230AE03B686D
:100B4000DAB20849FB7903F00F03043B1201D2B279
:100B50000B441A7600BF0C37BD4680BC704700BFFF
:100B600000E100E000ED00E080B483B000AF786009
:100B70007B689B6843F001027B689A607B689B6896
:100B800043F004027B689A6000BF7B689B6803F0B7
:100B90000403042BF9D07B689B6823F001027B6877
:100BA0009A607B689B6823F002027B689A607B688E
:100BB0009B6843F400027B689A607B68DB6A23F4DD
:100BC00070027B68DA627B685B6B23F01F027B68D4
:100BD0005A637B685B6B43F001027B685A637B68F6
:100BE0009B6823F460227B689A607B689B6843F46F
:100BF00060227B689A607B689B6843F001027B6897
:100C00009A6000BF0C37BD4680BC704780B400AF0F
:100C1000074B9B69064A43F004039361054B1B682D
:100C2000044A23F0F003136000BFBD4680BC704748
:100C3000001002400008014080B500AF0C4B9B69DA
:100C40000B4A43F400739361FFF7E0FF0948FFF795
:100C50008BFF084B5B68074A43F020035360012178
:100C60001220FFF757FF1220FFF738FF00BF80BDAB
:100C7000001002400024014080B483B000AF7860CF
:100C80007B68DB6823F400527B68DA607B68DB6892
:100C900023F480527B68DA607B681B6923F440523E
:100CA0007B681A617B6840F241329A607B68DB683E
:100CB00043F00C027B68DA607B68DB6843F4005227
:100CC0007B68DA6000BF0C37BD4680BC704780B4DB
:100CD00000AF144B9B69134A43F004039361124B1A
:100CE0005B68114A23F0F00353600F4B5B680E4AB8
:100CF00043F0300353600C4B5B680B4A43F08003B6
:100D00005360094B5B68084A23F470635360064BD9
:100D10005B68054A43F48063536000BFBD4680BCF6
:100D2000704700BF001002400008014080B500AFCE
:100D3000064B9B69054A43F480439361FFF7C7FF65
:100D40000348FFF799FF00BF80BD00BF00100240BD
:100D50000038014080B483B000AF786000BF7B688A
:100D60001B6803F02003002BF9D07B685B68DBB2C3
:100D700018460C37BD4680BC704780B586B000AFC2
:100D8000F860B9607A6000237B6114E000BFFB6803
:100D90001B6803F08003002BF9D07B69BA68134409
:100DA0001B781A46FB685A604FF49670FFF73AFDBD
:100DB0007B6901337B617B697A689A42E6D800BF20
:100DC000FB681B6803F04003002BF9D0FB681B682D
:100DD00023F04002FB681A6000BF1837BD4680BD93
:100DE00006480749074A914205D050F8043B41F8AC
:100DF000043B9142F9D3FFF70FBCFEE70A0E00084F
:0A0E0000000000200F000020FEE7B4
:0F0E0A00010000003F065B4F666D7D077F6F00A4
:00000001FF
