:020000040800F2
:1000000000280020F10D0008190E0008190E000844
:10001000190E0008190E0008190E00080000000053
:10002000000000000000000000000000190E0008A1
:10003000190E000800000000190E0008190E000833
:10004000190E0008190E0008190E0008190E0008F4
:10005000190E0008190E0008190E0008190E0008E4
:10006000190E0008190E0008190E0008190E0008D4
:10007000190E0008190E0008190E0008190E0008C4
:10008000190E0008190E000895070008190E00083F
:10009000190E0008190E0008190E0008190E0008A4
:1000A000190E0008BD040008190E0008190E0008FA
:1000B000190E0008190E000800000000190E0008B3
:1000C000190E00080000000000000000190E0008D2
:1000D00000000000190E0008190E000800000000C2
:1000E000190E0008190E0008190E00080000000083
:1000F0000000000000000000000000000000000000
:0C01000000000000000000005FF808F1A3
:10010C007370656564203D202564202525200D0A2B
:10011C000000000074656D70203D20256400000017
:07012C002E2564430D0A00BB
:1001340080B483B000AF0346FB7197F90730002BFE
:100144000BDBFB7903F01F02064997F907305B09C3
:10015400012000FA02F241F8232000BF0C37BD460B
:1001640080BC704700E100E080B483B000AF034678
:100174003960FB7197F90730002B0ADB3B68DAB270
:100184000C4997F907301201D2B20B4483F80023CB
:100194000AE03B68DAB20849FB7903F00F03043B39
:1001A4001201D2B20B441A7600BF0C37BD4680BC94
:1001B400704700BF00E100E000ED00E080B582B0D0
:1001C40000AFAE4B1B680133AC4A1360AB4B1B68EA
:1001D400322B40F0F980A94B00221A60A84B1B78FF
:1001E4000133DAB2A64B1A70A54B1B7803F0010356
:1001F400DAB2A34B1A70A34B1B780133DAB2A14BCA
:100204001A70A04B1A78A04BA3FB0213D9080B4613
:100214009B000B445B00D31ADAB29A4B1A709B4BC7
:100224001B780133DAB2994B1A70984B1A78964BB3
:10023400A3FB021399080B469B000B44D31ADAB2B2
:10024400924B1A70914B1B78002B47D1904B0A228A
:100254001A708F4B0A225A708D4B0A229A708D4B5A
:100264001B688D4A82FB03125211DB17D21A8B4B87
:1002740083FB02139910D317C91A0B469B000B4436
:100284005B00D11ACAB2824BDA70824B1B68834A74
:1002940082FB03129210DB17D21A804B83FB0213EA
:1002A4009910D317C91A0B469B000B445B00D11A53
:1002B400CAB2774B1A71774B1A68784B83FB0213D7
:1002C4009910D317C91A0B469B000B445B00D11A33
:1002D400CAB26F4B5A71724B00221A706B4B1B7867
:1002E400012B71D16F4B1B684FF4FA7202FB03F3BD
:1002F400002B01DA03F6FF731B137B60694B1B6849
:1003040040F6354202FB03F3002B00DAFF331B12E5
:10031400614A82FB03125111DA178A1A642101FB24
:1003240002F29B1A3B607B685C4A82FB03129210C8
:10033400DB17D21A594B83FB02139910D317C91A2E
:100344000B469B000B445B00D11ACAB2504B1A7087
:100354007A68524B83FB02139910D317C91A0B46C0
:100364009B000B445B00D11ACAB2494B5A703B68DC
:100374004A4A82FB03129210DB17D21A474B83FBC3
:1003840002139910D317C91A0B469B000B445B0048
:10039400D11ACAB23E4B9A703A68404B83FB02139F
:1003A4009910D317C91A0B469B000B445B00D11A52
:1003B400CAB2374BDA70364B0A221A71344B0A220E
:1003C4005A71374B01221A702C4B1B682E4AA2FB20
:1003D40003239B082F4A1268934202D200F042F989
:1003E40001E000F04DF9304BDB682F4A23F47F53D2
:1003F40023F03F03D3602C4BDB682B4A43F0FF030D
:10040400D360294BDB68294A12781146204A525C92
:100414001146274A525CD2431146234A0B40D3600B
:100424001F4B1B78002B09D0204B1B78012B05D1C7
:100434001D4BDB681C4A03F07F03D3601A4BDB6857
:100444001A4A12780832012101FA02F21146164AB8
:100454000B43D360154B1B785A1C164B83FB02319C
:10046400D317C91A0B465B000B445B00D11ACAB2FE
:100474000E4B1A7000BF0837BD4680BD1000002027
:100484001400002015000020CDCCCCCC1600002098
:1004940020000020180000201F85EB516766666667
:1004A4001700002048000020000C01402600002016
:1004B40004000020ABAAAA2A80B500AF064B1B6833
:1004C40003F00103002B04D0034B00221A60FFF752
:1004D40075FE00BF80BD00BF102C014080B485B004
:1004E40000AF294B1B68284A43F008031360274BCD
:1004F4001B68FB600023BB6015E0BB689B000F22F8
:1005040002FA03F3DB431A46FB681340FB60BB6843
:100514009B00022202FA03F31A46FB681343FB60B2
:10052400BB680133BB60BB68072BE6DD174AFB6879
:100534001360164B5B687B6000233B6015E03B68EF
:100544009B000F2202FA03F3DB431A467B68134035
:100554007B603B689B00022202FA03F31A467B6825
:1005640013437B603B6801333B603B68052BE6DD4E
:10057400064A7B685360054B0022DA6000BF1437DB
:10058400BD4680BC704700BF18100240000C0140FB
:1005940080B582B000AF78607B689B6843F001024D
:1005A4007B689A60142000F013FA7B689B6843F020
:1005B40004027B689A6000BF7B689B6803F00403B5
:1005C400042BF9D07B689B6823F001027B689A6056
:1005D4007B689B6823F002027B689A607B689B6857
:1005E40043F400027B689A607B68DB6A23F4700240
:1005F4007B68DA627B685B6B23F01F027B685A635B
:100604007B685B6B43F001027B685A637B689B6881
:1006140023F460227B689A607B689B6843F46022C1
:100624007B689A607B689B6843F001027B689A60F0
:1006340000BF0837BD4680BD80B400AF074B9B693F
:10064400064A43F004039361054B1B68044A23F0F4
:10065400F003136000BFBD4680BC70470010024029
:100664000008014080B400AF044BDB68034A43F048
:100674000803D36000BFBD4680BC70470010014032
:1006840080B400AF044BDB68034A23F00803D36053
:1006940000BFBD4680BC70470010014080B400AF6D
:1006A400044BDB68034A83F00803D36000BFBD46F4
:1006B40080BC70470010014080B400AF224B9B699E
:1006C400214A43F010039361204B1B681F4A23F413
:1006D400704313601D4B1B681C4A43F400531360A2
:1006E4001A4B1B68194A23F440431360174BDB6809
:1006F400164A23F00803D360144B1B68134A23F0F3
:100704000F031360114B1B68104A43F00803136076
:100714000E4B1B680D4A23F0F00313600B4B1B6850
:100724000A4A43F080031360084B1B68074A23F40A
:1007340070631360054B1B68044A43F40063136041
:1007440000BFBD4680BC704700100240001001404D
:1007540080B500AF0C4B9B690B4A43F40073936163
:10076400FFF76AFF0948FFF713FF084B5B68074A66
:1007740043F02003536001211220FFF7F5FC1220FF
:10078400FFF7D6FC00BF80BD0010024000240140EA
:1007940080B483B000AF094B1B68FB80FB8803F077
:1007A4000203002B04D0054BDB6C9BB2044A13609C
:1007B40000BF0C37BD4680BC704700BF0024014019
:1007C4004800002080B584B000AF00F01BFA00F0B0
:1007D40027FAFFF783FE00F02FFAFFF76DFFFFF70C
:1007E400B7FF00F0A9FA6A4B9B6803F00103012BE1
:1007F40026D1684B1B78002B50D1674B9B68664A07
:1008040043F480039360654B1B68FB60FB68B3F59E
:10081400967F03DD624B64221A603FE0FB68962BEF
:100824000ADDFB68963B5B005E4A82FB0312DB1722
:10083400D31A5B4A136031E0594B00221A602DE051
:10084400544B1B78002B05D1534B9B68524A43F4FD
:10085400800393604E4B9B6803F00203022B0BD181
:10086400514B1B78002B07D14F4B01221A704C4B74
:100874001B6805334A4A1360454B9B6803F0040325
:10088400042B0BD1494B1B78002B07D1474B01227A
:100894001A70434B1B68053B414A13603C4B9B68F1
:1008A40003F00203022B02D03F4B00221A70384B94
:1008B4009B6803F00403042B02D03C4B00221A7003
:1008C400374B1B68642B02DD354B64221A60344BB2
:1008D4001B68002B02DA324B00221A60344B1B785F
:1008E400002B4CD1334B1B78002B48D12B4B1B686E
:1008F400FB60FB684FF4FA7202FB03F3002B01DA8E
:1009040003F6FF731B137B60FB6840F6354202FB62
:1009140003F3002B00DAFF331B121A46264B83FB2A
:1009240002135911D317CB1A642101FB03F3D31A11
:100934003B601B4A2149224800F0B6F8B860BA6807
:100944001F49204800F01FFA3B1D1A461E491C4847
:1009540000F0AAF8B860BA6819491A4800F013FA06
:100964003B461A461949164800F09EF8B860BA6822
:100974001349144800F007FA0E4B01221A700C4B6D
:100984001B78002B3FF42FAF0A4B00221A702AE782
:100994000010014014000020002401404800002001
:1009A40018000020565555551C0000201D0000203D
:1009B40015000020000000201F85EB510C010008E9
:1009C4002800002000380140200100082C01000804
:1009D40080B485B000AF78607B68642202FB03F2C8
:1009E400094BA3FB0213D21A520813449B08FB6061
:1009F400FB68013BFB60FB68002BF9D100BF143797
:100A0400BD4680BC704700BF2549922480B489B09C
:100A140000AFF860B9607A6042F21073FB610123A1
:100A2400BB6136E07A68FB6992FBF3F37B61BB69D7
:100A3400012B0ED17B69002B0BD1FB69012B08D054
:100A4400FB69184A82FB03129210DB17D31AFB616D
:100A54001FE00023BB617B69FA6902FB03F37A6838
:100A6400D31A7B607B69DAB2FB681B683032D2B27E
:100A74001A70FB681B685A1CFB681A60BB68043355
:100A8400BB60FB69074A82FB03129210DB17D31A7F
:100A9400FB61FB69002BC5DC00BF2437BD4680BC6D
:100AA400704700BF6766666680B48DB000AFF860BB
:100AB400B9607A600023FB627FE0BB681B78252B5A
:100AC4000BD0BA68531CBB60FB68591CF9601278E0
:100AD4001A70FB6A0133FB626FE0BB680133BB60D1
:100AE400BB681B78642B3FD17B681B68BB6242F2F6
:100AF40010737B6201233B6232E0BA6A7B6A92FB29
:100B0400F3F37B613B6A012B0ED17B69002B0BD184
:100B14007B6A012B08D07B6A2E4A82FB0312921057
:100B2400DB17D31A7B621BE000233B627B697A6A82
:100B340002FB03F3BA6AD31ABB627B69DAB2FB68BD
:100B4400591CF9603032D2B21A70FB6A0133FB626D
:100B54007B6A204A82FB03129210DB17D31A7B6252
:100B64007B6A002BC9DC25E0BB681B78622B21D192
:100B74007B681B683B614FF40043FB610023BB614E
:100B840015E03A69FB691340002B01DD312100E0D7
:100B94003021FB685A1CFA600A461A70FB695B1024
:100BA400FB61FB6A0133FB62BB690133BB61BB6957
:100BB4000F2BE6DDBB680133BB60BB681B78002BE1
:100BC4007FF47BAFFB6ADBB218463437BD4680BC8A
:100BD400704700BF6766666680B485B000AF786012
:100BE4000023FB6000BFFB685A1CFA601A467B684E
:100BF40013441B78002BF6D1FB6818461437BD4606
:100C040080BC704780B400AF044B1B68034A43F4B4
:100C14000163136000BFBD4680BC704718100240DA
:100C240080B400AF034B4FF000721A6000BFBD46A2
:100C340080BC704700E100E080B400AF0C4B1B683F
:100C44000B4A43F0010313600A4B00221A600A4B5B
:100C540041F63F721A60094B02221A60084B1B6866
:100C6400074A43F00103136000BFBD4680BC7047D0
:100C74000C2C0140102C0140282C01402C2C01404C
:100C8400002C014080B483B000AF78607B68DB68DF
:100C940023F400527B68DA607B68DB6823F48052BB
:100CA4007B68DA607B681B6923F440527B681A61B5
:100CB4007B6840F241329A607B68DB6843F00C0247
:100CC4007B68DA607B68DB6843F400527B68DA6037
:100CD40000BF0C37BD4680BC704780B400AF144BD6
:100CE4009B69134A43F004039361124B5B68114AF6
:100CF40023F0F00353600F4B5B680E4A43F030035C
:100D040053600C4B5B680B4A43F080035360094B00
:100D14005B68084A23F470635360064B5B68054ABA
:100D240043F48063536000BFBD4680BC704700BF7E
:100D3400001002400008014080B500AF064B9B69DB
:100D4400054A43F480439361FFF7C7FF0348FFF765
:100D540099FF00BF80BD00BF001002400038014071
:100D640080B483B000AF786000BF7B681B6803F079
:100D74002003002BF9D07B685B68DBB218460C3784
:100D8400BD4680BC704780B586B000AFF860B960DE
:100D94007A6000237B6114E000BFFB681B6803F0EA
:100DA4008003002BF9D07B69BA6813441B781A4678
:100DB400FB685A604FF49670FFF70AFE7B690133B3
:100DC4007B617B697A689A42E6D800BFFB681B683E
:100DD40003F04003002BF9D0FB681B6823F04002AA
:100DE400FB681A6000BF1837BD4680BD0648074936
:100DF400074A914205D050F8043B41F8043B914224
:100E0400F9D3FFF7DFBCFEE71A0E0008000000204C
:060E14000F000020FEE7C4
:0F0E1A00010000003F065B4F666D7D077F6F0094
:00000001FF
